{
  "_format": "hh-sol-artifact-1",
  "contractName": "LostAndFound",
  "sourceName": "contracts/LostAndFound.sol",
  "abi": [
    {
      "inputs": [],
      "stateMutability": "nonpayable",
      "type": "constructor"
    },
    {
      "anonymous": false,
      "inputs": [
        {
          "indexed": true,
          "internalType": "string",
          "name": "itemId",
          "type": "string"
        },
        {
          "indexed": false,
          "internalType": "uint256",
          "name": "timestamp",
          "type": "uint256"
        }
      ],
      "name": "AutoReleaseTriggered",
      "type": "event"
    },
    {
      "anonymous": false,
      "inputs": [
        {
          "indexed": true,
          "internalType": "string",
          "name": "itemId",
          "type": "string"
        },
        {
          "indexed": true,
          "internalType": "address",
          "name": "finder",
          "type": "address"
        }
      ],
      "name": "ClaimApproved",
      "type": "event"
    },
    {
      "anonymous": false,
      "inputs": [
        {
          "indexed": true,
          "internalType": "string",
          "name": "itemId",
          "type": "string"
        },
        {
          "indexed": true,
          "internalType": "address",
          "name": "finder",
          "type": "address"
        },
        {
          "indexed": false,
          "internalType": "uint256",
          "name": "timestamp",
          "type": "uint256"
        }
      ],
      "name": "DeliveryInitiated",
      "type": "event"
    },
    {
      "anonymous": false,
      "inputs": [
        {
          "indexed": true,
          "internalType": "string",
          "name": "itemId",
          "type": "string"
        },
        {
          "indexed": true,
          "internalType": "address",
          "name": "raisedBy",
          "type": "address"
        },
        {
          "indexed": false,
          "internalType": "string",
          "name": "reason",
          "type": "string"
        },
        {
          "indexed": false,
          "internalType": "uint256",
          "name": "timestamp",
          "type": "uint256"
        }
      ],
      "name": "DisputeRaised",
      "type": "event"
    },
    {
      "anonymous": false,
      "inputs": [
        {
          "indexed": true,
          "internalType": "string",
          "name": "itemId",
          "type": "string"
        },
        {
          "indexed": false,
          "internalType": "string",
          "name": "resolution",
          "type": "string"
        },
        {
          "indexed": false,
          "internalType": "uint256",
          "name": "timestamp",
          "type": "uint256"
        }
      ],
      "name": "DisputeResolved",
      "type": "event"
    },
    {
      "anonymous": false,
      "inputs": [
        {
          "indexed": true,
          "internalType": "string",
          "name": "itemId",
          "type": "string"
        },
        {
          "indexed": true,
          "internalType": "address",
          "name": "finder",
          "type": "address"
        }
      ],
      "name": "FinderAssigned",
      "type": "event"
    },
    {
      "anonymous": false,
      "inputs": [
        {
          "indexed": true,
          "internalType": "string",
          "name": "itemId",
          "type": "string"
        },
        {
          "indexed": false,
          "internalType": "uint256",
          "name": "timestamp",
          "type": "uint256"
        }
      ],
      "name": "FinderConfirmed",
      "type": "event"
    },
    {
      "anonymous": false,
      "inputs": [
        {
          "indexed": true,
          "internalType": "string",
          "name": "itemId",
          "type": "string"
        },
        {
          "indexed": false,
          "internalType": "uint256",
          "name": "timestamp",
          "type": "uint256"
        }
      ],
      "name": "ItemDelivered",
      "type": "event"
    },
    {
      "anonymous": false,
      "inputs": [
        {
          "indexed": true,
          "internalType": "string",
          "name": "itemId",
          "type": "string"
        },
        {
          "indexed": false,
          "internalType": "string",
          "name": "itemType",
          "type": "string"
        },
        {
          "indexed": true,
          "internalType": "address",
          "name": "reporter",
          "type": "address"
        },
        {
          "indexed": false,
          "internalType": "string",
          "name": "qrCodeHash",
          "type": "string"
        },
        {
          "indexed": false,
          "internalType": "int256",
          "name": "latitude",
          "type": "int256"
        },
        {
          "indexed": false,
          "internalType": "int256",
          "name": "longitude",
          "type": "int256"
        },
        {
          "indexed": false,
          "internalType": "uint256",
          "name": "rewardAmount",
          "type": "uint256"
        }
      ],
      "name": "ItemRegistered",
      "type": "event"
    },
    {
      "anonymous": false,
      "inputs": [
        {
          "indexed": false,
          "internalType": "string",
          "name": "lostItemId",
          "type": "string"
        },
        {
          "indexed": false,
          "internalType": "string",
          "name": "foundItemId",
          "type": "string"
        },
        {
          "indexed": false,
          "internalType": "uint256",
          "name": "matchScore",
          "type": "uint256"
        },
        {
          "indexed": false,
          "internalType": "uint256",
          "name": "timestamp",
          "type": "uint256"
        }
      ],
      "name": "MatchRecorded",
      "type": "event"
    },
    {
      "anonymous": false,
      "inputs": [
        {
          "indexed": true,
          "internalType": "string",
          "name": "itemId",
          "type": "string"
        },
        {
          "indexed": false,
          "internalType": "uint256",
          "name": "timestamp",
          "type": "uint256"
        }
      ],
      "name": "OwnerConfirmed",
      "type": "event"
    },
    {
      "anonymous": false,
      "inputs": [
        {
          "indexed": true,
          "internalType": "string",
          "name": "itemId",
          "type": "string"
        },
        {
          "indexed": true,
          "internalType": "address",
          "name": "approver",
          "type": "address"
        },
        {
          "indexed": false,
          "internalType": "uint256",
          "name": "approvalCount",
          "type": "uint256"
        }
      ],
      "name": "ReleaseApproved",
      "type": "event"
    },
    {
      "anonymous": false,
      "inputs": [
        {
          "indexed": true,
          "internalType": "string",
          "name": "itemId",
          "type": "string"
        },
        {
          "indexed": false,
          "internalType": "uint256",
          "name": "amount",
          "type": "uint256"
        },
        {
          "indexed": true,
          "internalType": "address",
          "name": "depositor",
          "type": "address"
        }
      ],
      "name": "RewardDeposited",
      "type": "event"
    },
    {
      "anonymous": false,
      "inputs": [
        {
          "indexed": true,
          "internalType": "string",
          "name": "itemId",
          "type": "string"
        },
        {
          "indexed": true,
          "internalType": "address",
          "name": "depositor",
          "type": "address"
        },
        {
          "indexed": false,
          "internalType": "uint256",
          "name": "amount",
          "type": "uint256"
        },
        {
          "indexed": false,
          "internalType": "uint256",
          "name": "timestamp",
          "type": "uint256"
        }
      ],
      "name": "RewardRefunded",
      "type": "event"
    },
    {
      "anonymous": false,
      "inputs": [
        {
          "indexed": true,
          "internalType": "string",
          "name": "itemId",
          "type": "string"
        },
        {
          "indexed": true,
          "internalType": "address",
          "name": "claimer",
          "type": "address"
        },
        {
          "indexed": false,
          "internalType": "uint256",
          "name": "amount",
          "type": "uint256"
        },
        {
          "indexed": false,
          "internalType": "uint256",
          "name": "timestamp",
          "type": "uint256"
        }
      ],
      "name": "RewardReleased",
      "type": "event"
    },
    {
      "inputs": [],
      "name": "AUTO_RELEASE_DELAY",
      "outputs": [
        {
          "internalType": "uint256",
          "name": "",
          "type": "uint256"
        }
      ],
      "stateMutability": "view",
      "type": "function"
    },
    {
      "inputs": [],
      "name": "DISPUTE_RESOLUTION_DELAY",
      "outputs": [
        {
          "internalType": "uint256",
          "name": "",
          "type": "uint256"
        }
      ],
      "stateMutability": "view",
      "type": "function"
    },
    {
      "inputs": [],
      "name": "admin",
      "outputs": [
        {
          "internalType": "address",
          "name": "",
          "type": "address"
        }
      ],
      "stateMutability": "view",
      "type": "function"
    },
    {
      "inputs": [
        {
          "internalType": "string",
          "name": "_itemId",
          "type": "string"
        }
      ],
      "name": "approveRelease",
      "outputs": [],
      "stateMutability": "nonpayable",
      "type": "function"
    },
    {
      "inputs": [
        {
          "internalType": "string",
          "name": "_itemId",
          "type": "string"
        },
        {
          "internalType": "address",
          "name": "_finder",
          "type": "address"
        }
      ],
      "name": "assignFinder",
      "outputs": [],
      "stateMutability": "nonpayable",
      "type": "function"
    },
    {
      "inputs": [
        {
          "internalType": "string",
          "name": "_itemId",
          "type": "string"
        }
      ],
      "name": "canAutoRelease",
      "outputs": [
        {
          "internalType": "bool",
          "name": "",
          "type": "bool"
        }
      ],
      "stateMutability": "view",
      "type": "function"
    },
    {
      "inputs": [
        {
          "internalType": "string",
          "name": "_itemId",
          "type": "string"
        }
      ],
      "name": "confirmAsFinder",
      "outputs": [],
      "stateMutability": "nonpayable",
      "type": "function"
    },
    {
      "inputs": [
        {
          "internalType": "string",
          "name": "_itemId",
          "type": "string"
        }
      ],
      "name": "confirmItemReceived",
      "outputs": [],
      "stateMutability": "nonpayable",
      "type": "function"
    },
    {
      "inputs": [
        {
          "internalType": "string",
          "name": "_itemId",
          "type": "string"
        }
      ],
      "name": "depositReward",
      "outputs": [],
      "stateMutability": "payable",
      "type": "function"
    },
    {
      "inputs": [],
      "name": "getAllItemIds",
      "outputs": [
        {
          "internalType": "string[]",
          "name": "",
          "type": "string[]"
        }
      ],
      "stateMutability": "view",
      "type": "function"
    },
    {
      "inputs": [
        {
          "internalType": "string",
          "name": "_itemId",
          "type": "string"
        }
      ],
      "name": "getDisputeInfo",
      "outputs": [
        {
          "internalType": "bool",
          "name": "isDisputed",
          "type": "bool"
        },
        {
          "internalType": "string",
          "name": "reason",
          "type": "string"
        },
        {
          "internalType": "address",
          "name": "raisedBy",
          "type": "address"
        },
        {
          "internalType": "uint256",
          "name": "timestamp",
          "type": "uint256"
        }
      ],
      "stateMutability": "view",
      "type": "function"
    },
    {
      "inputs": [
        {
          "internalType": "string",
          "name": "_itemId",
          "type": "string"
        }
      ],
      "name": "getEscrowDetails",
      "outputs": [
        {
          "internalType": "uint256",
          "name": "amount",
          "type": "uint256"
        },
        {
          "internalType": "address",
          "name": "depositor",
          "type": "address"
        },
        {
          "internalType": "address",
          "name": "approvedFinder",
          "type": "address"
        },
        {
          "internalType": "enum LostAndFound.EscrowState",
          "name": "state",
          "type": "uint8"
        },
        {
          "internalType": "bool",
          "name": "ownerConfirmed",
          "type": "bool"
        },
        {
          "internalType": "bool",
          "name": "finderConfirmed",
          "type": "bool"
        },
        {
          "internalType": "bool",
          "name": "ownerApproved",
          "type": "bool"
        },
        {
          "internalType": "bool",
          "name": "finderApproved",
          "type": "bool"
        },
        {
          "internalType": "bool",
          "name": "adminApproved",
          "type": "bool"
        },
        {
          "internalType": "uint256",
          "name": "autoReleaseTime",
          "type": "uint256"
        },
        {
          "internalType": "bool",
          "name": "autoReleaseTriggered",
          "type": "bool"
        }
      ],
      "stateMutability": "view",
      "type": "function"
    },
    {
      "inputs": [
        {
          "internalType": "string",
          "name": "_itemId",
          "type": "string"
        }
      ],
      "name": "getItem",
      "outputs": [
        {
          "internalType": "string",
          "name": "id",
          "type": "string"
        },
        {
          "internalType": "string",
          "name": "itemType",
          "type": "string"
        },
        {
          "internalType": "address",
          "name": "reporter",
          "type": "address"
        },
        {
          "internalType": "string",
          "name": "qrCodeHash",
          "type": "string"
        },
        {
          "internalType": "int256",
          "name": "latitude",
          "type": "int256"
        },
        {
          "internalType": "int256",
          "name": "longitude",
          "type": "int256"
        },
        {
          "internalType": "uint256",
          "name": "rewardAmount",
          "type": "uint256"
        },
        {
          "internalType": "bool",
          "name": "isClaimed",
          "type": "bool"
        },
        {
          "internalType": "uint256",
          "name": "timestamp",
          "type": "uint256"
        },
        {
          "internalType": "string",
          "name": "description",
          "type": "string"
        },
        {
          "internalType": "string",
          "name": "metadataURI",
          "type": "string"
        }
      ],
      "stateMutability": "view",
      "type": "function"
    },
    {
      "inputs": [
        {
          "internalType": "string",
          "name": "_qrCodeHash",
          "type": "string"
        }
      ],
      "name": "getItemByQR",
      "outputs": [
        {
          "internalType": "string",
          "name": "id",
          "type": "string"
        },
        {
          "internalType": "string",
          "name": "itemType",
          "type": "string"
        },
        {
          "internalType": "address",
          "name": "reporter",
          "type": "address"
        },
        {
          "internalType": "int256",
          "name": "latitude",
          "type": "int256"
        },
        {
          "internalType": "int256",
          "name": "longitude",
          "type": "int256"
        },
        {
          "internalType": "uint256",
          "name": "rewardAmount",
          "type": "uint256"
        },
        {
          "internalType": "bool",
          "name": "isClaimed",
          "type": "bool"
        },
        {
          "internalType": "string",
          "name": "description",
          "type": "string"
        },
        {
          "internalType": "string",
          "name": "metadataURI",
          "type": "string"
        }
      ],
      "stateMutability": "view",
      "type": "function"
    },
    {
      "inputs": [],
      "name": "getItemCount",
      "outputs": [
        {
          "internalType": "uint256",
          "name": "",
          "type": "uint256"
        }
      ],
      "stateMutability": "view",
      "type": "function"
    },
    {
      "inputs": [
        {
          "internalType": "uint256",
          "name": "index",
          "type": "uint256"
        }
      ],
      "name": "getMatch",
      "outputs": [
        {
          "internalType": "string",
          "name": "",
          "type": "string"
        },
        {
          "internalType": "string",
          "name": "",
          "type": "string"
        },
        {
          "internalType": "uint256",
          "name": "",
          "type": "uint256"
        },
        {
          "internalType": "uint256",
          "name": "",
          "type": "uint256"
        }
      ],
      "stateMutability": "view",
      "type": "function"
    },
    {
      "inputs": [],
      "name": "getMatchCount",
      "outputs": [
        {
          "internalType": "uint256",
          "name": "",
          "type": "uint256"
        }
      ],
      "stateMutability": "view",
      "type": "function"
    },
    {
      "inputs": [
        {
          "internalType": "string",
          "name": "_itemId",
          "type": "string"
        }
      ],
      "name": "getRewardInfo",
      "outputs": [
        {
          "internalType": "uint256",
          "name": "amount",
          "type": "uint256"
        },
        {
          "internalType": "address",
          "name": "depositor",
          "type": "address"
        },
        {
          "internalType": "bool",
          "name": "isReleased",
          "type": "bool"
        },
        {
          "internalType": "bool",
          "name": "isRefunded",
          "type": "bool"
        }
      ],
      "stateMutability": "view",
      "type": "function"
    },
    {
      "inputs": [
        {
          "internalType": "string",
          "name": "_itemId",
          "type": "string"
        }
      ],
      "name": "initiateDelivery",
      "outputs": [],
      "stateMutability": "nonpayable",
      "type": "function"
    },
    {
      "inputs": [
        {
          "internalType": "uint256",
          "name": "",
          "type": "uint256"
        }
      ],
      "name": "itemIds",
      "outputs": [
        {
          "internalType": "string",
          "name": "",
          "type": "string"
        }
      ],
      "stateMutability": "view",
      "type": "function"
    },
    {
      "inputs": [
        {
          "internalType": "string",
          "name": "",
          "type": "string"
        }
      ],
      "name": "items",
      "outputs": [
        {
          "internalType": "string",
          "name": "id",
          "type": "string"
        },
        {
          "internalType": "string",
          "name": "itemType",
          "type": "string"
        },
        {
          "internalType": "address",
          "name": "reporterAddress",
          "type": "address"
        },
        {
          "internalType": "string",
          "name": "qrCodeHash",
          "type": "string"
        },
        {
          "internalType": "int256",
          "name": "latitude",
          "type": "int256"
        },
        {
          "internalType": "int256",
          "name": "longitude",
          "type": "int256"
        },
        {
          "internalType": "uint256",
          "name": "rewardAmount",
          "type": "uint256"
        },
        {
          "internalType": "bool",
          "name": "isClaimed",
          "type": "bool"
        },
        {
          "internalType": "uint256",
          "name": "timestamp",
          "type": "uint256"
        },
        {
          "internalType": "string",
          "name": "description",
          "type": "string"
        },
        {
          "internalType": "string",
          "name": "metadataURI",
          "type": "string"
        },
        {
          "internalType": "bytes32",
          "name": "secretHash",
          "type": "bytes32"
        }
      ],
      "stateMutability": "view",
      "type": "function"
    },
    {
      "inputs": [
        {
          "internalType": "string",
          "name": "_itemId",
          "type": "string"
        }
      ],
      "name": "markItemDelivered",
      "outputs": [],
      "stateMutability": "nonpayable",
      "type": "function"
    },
    {
      "inputs": [
        {
          "internalType": "uint256",
          "name": "",
          "type": "uint256"
        }
      ],
      "name": "matches",
      "outputs": [
        {
          "internalType": "string",
          "name": "lostItemId",
          "type": "string"
        },
        {
          "internalType": "string",
          "name": "foundItemId",
          "type": "string"
        },
        {
          "internalType": "uint256",
          "name": "matchScore",
          "type": "uint256"
        },
        {
          "internalType": "uint256",
          "name": "timestamp",
          "type": "uint256"
        }
      ],
      "stateMutability": "view",
      "type": "function"
    },
    {
      "inputs": [
        {
          "internalType": "string",
          "name": "",
          "type": "string"
        }
      ],
      "name": "qrCodeToItemId",
      "outputs": [
        {
          "internalType": "string",
          "name": "",
          "type": "string"
        }
      ],
      "stateMutability": "view",
      "type": "function"
    },
    {
      "inputs": [
        {
          "internalType": "string",
          "name": "_itemId",
          "type": "string"
        },
        {
          "internalType": "string",
          "name": "_reason",
          "type": "string"
        }
      ],
      "name": "raiseDispute",
      "outputs": [],
      "stateMutability": "nonpayable",
      "type": "function"
    },
    {
      "inputs": [
        {
          "internalType": "string",
          "name": "_lostItemId",
          "type": "string"
        },
        {
          "internalType": "string",
          "name": "_foundItemId",
          "type": "string"
        },
        {
          "internalType": "uint256",
          "name": "_matchScore",
          "type": "uint256"
        }
      ],
      "name": "recordMatch",
      "outputs": [],
      "stateMutability": "nonpayable",
      "type": "function"
    },
    {
      "inputs": [
        {
          "internalType": "string",
          "name": "_id",
          "type": "string"
        },
        {
          "internalType": "string",
          "name": "_itemType",
          "type": "string"
        },
        {
          "internalType": "string",
          "name": "_qrCodeHash",
          "type": "string"
        },
        {
          "internalType": "int256",
          "name": "_latitude",
          "type": "int256"
        },
        {
          "internalType": "int256",
          "name": "_longitude",
          "type": "int256"
        },
        {
          "internalType": "string",
          "name": "_description",
          "type": "string"
        },
        {
          "internalType": "string",
          "name": "_metadataURI",
          "type": "string"
        },
        {
          "internalType": "bytes32",
          "name": "_secretHash",
          "type": "bytes32"
        }
      ],
      "name": "registerItem",
      "outputs": [],
      "stateMutability": "payable",
      "type": "function"
    },
    {
      "inputs": [
        {
          "internalType": "address",
          "name": "",
          "type": "address"
        }
      ],
      "name": "reputation",
      "outputs": [
        {
          "internalType": "uint256",
          "name": "",
          "type": "uint256"
        }
      ],
      "stateMutability": "view",
      "type": "function"
    },
    {
      "inputs": [
        {
          "internalType": "string",
          "name": "_itemId",
          "type": "string"
        }
      ],
      "name": "resolveDisputeRefund",
      "outputs": [],
      "stateMutability": "nonpayable",
      "type": "function"
    },
    {
      "inputs": [
        {
          "internalType": "string",
          "name": "_itemId",
          "type": "string"
        }
      ],
      "name": "resolveDisputeRelease",
      "outputs": [],
      "stateMutability": "nonpayable",
      "type": "function"
    },
    {
      "inputs": [
        {
          "internalType": "string",
          "name": "",
          "type": "string"
        }
      ],
      "name": "rewards",
      "outputs": [
        {
          "internalType": "string",
          "name": "itemId",
          "type": "string"
        },
        {
          "internalType": "uint256",
          "name": "amount",
          "type": "uint256"
        },
        {
          "internalType": "address",
          "name": "depositor",
          "type": "address"
        },
        {
          "internalType": "address",
          "name": "approvedFinder",
          "type": "address"
        },
        {
          "internalType": "enum LostAndFound.EscrowState",
          "name": "state",
          "type": "uint8"
        },
        {
          "internalType": "uint256",
          "name": "deliveryTimestamp",
          "type": "uint256"
        },
        {
          "internalType": "bool",
          "name": "ownerConfirmed",
          "type": "bool"
        },
        {
          "internalType": "bool",
          "name": "finderConfirmed",
          "type": "bool"
        },
        {
          "internalType": "bool",
          "name": "ownerApproved",
          "type": "bool"
        },
        {
          "internalType": "bool",
          "name": "finderApproved",
          "type": "bool"
        },
        {
          "internalType": "bool",
          "name": "adminApproved",
          "type": "bool"
        },
        {
          "internalType": "uint256",
          "name": "autoReleaseTime",
          "type": "uint256"
        },
        {
          "internalType": "bool",
          "name": "autoReleaseTriggered",
          "type": "bool"
        },
        {
          "internalType": "string",
          "name": "disputeReason",
          "type": "string"
        },
        {
          "internalType": "address",
          "name": "disputeRaisedBy",
          "type": "address"
        },
        {
          "internalType": "uint256",
          "name": "disputeTimestamp",
          "type": "uint256"
        }
      ],
      "stateMutability": "view",
      "type": "function"
    },
    {
      "inputs": [
        {
          "internalType": "address",
          "name": "newAdmin",
          "type": "address"
        }
      ],
      "name": "transferAdmin",
      "outputs": [],
      "stateMutability": "nonpayable",
      "type": "function"
    },
    {
      "inputs": [
        {
          "internalType": "string",
          "name": "_itemId",
          "type": "string"
        }
      ],
      "name": "triggerAutoRelease",
      "outputs": [],
      "stateMutability": "nonpayable",
      "type": "function"
    },
    {
      "inputs": [
        {
          "internalType": "string",
          "name": "_itemId",
          "type": "string"
        },
        {
          "internalType": "address payable",
          "name": "_finder",
          "type": "address"
        },
        {
          "internalType": "string",
          "name": "_secret",
          "type": "string"
        }
      ],
      "name": "verifyAndPay",
      "outputs": [],
      "stateMutability": "nonpayable",
      "type": "function"
    }
  ],
  "bytecode": "0x6080806040523461002857600080546001600160a01b0319163317905561408c908161002e8239f35b600080fdfe608080604052600436101561001357600080fd5b60003560e01c90816309499aa6146138f2575080631d8bd6a3146137fa57806329302009146136c25780633d092b3d1461360c5780634768d4ef146135b45780634909b29b14613463578063527170ec14613445578063553f40f41461314f5780635624d20e14612bb65780637269abdb146129e9578063729dfe40146128e157806373045e681461262057806375829def1461259e57806376492d3f146124205780637749cf23146124025780638c4f7dae146123e457806397493f2f1461205a578063a2f8af3814611ef8578063a74da37714611d8f578063afb62d8114611c25578063b3dc00fe14611bd8578063b5d23dab146119b2578063b6010fcd146117d5578063b77d91131461163c578063b7b4b74514611181578063b7d63c0514610fe4578063b9f7945114610faa578063c69af79e14610ce3578063c898bb4314610b02578063cf7011851461059b578063dc906182146103c0578063e4b0f6b01461035e578063ec884a16146101c35763f851a4401461019557600080fd5b346101be5760003660031901126101be576000546040516001600160a01b039091168152602090f35b600080fd5b346101be576020806003193601126101be576004356001600160401b0381116101be57816101f861020b92369060040161399d565b81604051938285809451938492016139f3565b8101600381520301902060405161022181613945565b61022a82613afa565b815260018201548382015260028201546001600160a01b039081166040830152600383015480821660608401526080830194919060ff906102709060a01c821687613de8565b600485015460a0850152806005860154818116151560c0870152818160081c16151560e0870152818160101c161515610100870152818160181c161515610120870152841c161515610140850152600685015461016085015260078501541615156101808401526102e360088501613afa565b946101a084019586526101e0600a83600988015416966101c08701978852015494019384525193600985101561034857608061033992600697519251169451936040519788971487528601526080850190613a16565b91604084015260608301520390f35b634e487b7160e01b600052602160045260246000fd5b346101be5760203660031901126101be576004356001600160401b0381116101be576103a861039960206101f86103bc94369060040161399d565b81016004815203019020613afa565b604051918291602083526020830190613a16565b0390f35b346101be5760203660031901126101be576004356001600160401b0381116101be5760206101f86103f592369060040161399d565b81016003815203019020600a6040519161040e83613945565b61041781613afa565b83526001810154602084015260028101546001600160a01b039081166040850152600382015490811660608501526104589060a01c60ff1660808501613de8565b600481015460a084015260ff6005820154818116151560c0860152818160081c16151560e0860152818160101c161515610100860152818160181c16151561012086015260201c161515610140840152600681015461016084015260ff60078201541615156101808401526104cf60088201613afa565b6101a08401526009818101546001600160a01b039081166101c086015292909101546101e0840152602083015160408401516060850151608086015195929491821693911690851015610348576101609460c0830151151560e084015115156101008501511515916105736101208701511515946101408801511515966101808c8a01519901511515996040519b8c5260208c015260408b015260608a0190613bb5565b608088015260a087015260c086015260e0850152610100840152610120830152610140820152f35b346101be576020806003193601126101be576004356001600160401b0381116101be576105cc90369060040161399d565b906040516106016105fa8451928481818801956105ea8183896139f3565b8101600281520301902054613ac0565b1515613d0b565b60405183516106118183856139f3565b8101926003938481528282600194859303019020015415610ac75760405192855161063d8186846139f3565b840185815285858460ff97889403019020015460a01c169260098410156103485760058094148015610a92575b61067390613ea4565b60405187516106838183866139f3565b8101600281526002828660018060a01b039485940301902001541633149060405181898b516106b381858a6139f3565b8301928184528881339503019020015416149060005416331491808115610a8b575b8015610a84575b15610a3f576000929190888888888d8f86610a0c575b5050505050506109a2575b80610978575b610905575b806108dc575b610869575b1561081957846107b088600293838861079789898e858560405185818c5161073c81838a6139f3565b810186815203019020015460101c161561080f57610785875b87878b8760405180925161076a81838c6139f3565b810188815203019020015460181c1615610807578890613f03565b976040519485938492519283916139f3565b8201908152030190200154881c16156107fe5790613f03565b16101594856107d0575b50505050506107c557005b6107ce90613f17565b005b6107e8939495506040518094819389519283916139f3565b82019081520301902001541682808080806107ba565b50600090613f03565b600090613f03565b6107856000610755565b60405162461bcd60e51b815260048101849052602260248201527f416c726561647920617070726f766564206f72206e6f7420617574686f72697a604482015261195960f21b6064820152608490fd5b6108a2908560405186818c5161088081838b6139f3565b81018c81520301902001805464ff000000001916640100000000179055613ef4565b6108ab88613d88565b604051908282527fe8fe2fcbdc61de0148938b975feff1a13f969c9af77c00314097d539028e0795863393a3610713565b50858560405186818c516108f181838b6139f3565b81018c8152030190200154851c161561070e565b9061093d908660405187818d5161091d81838c6139f3565b81018d81520301902001805463ff00000019166301000000179055613ef4565b9061094789613d88565b604051908382527fe8fe2fcbdc61de0148938b975feff1a13f969c9af77c00314097d539028e0795873393a3610708565b50868660405187818d5161098d81838c6139f3565b81018d815203019020015460181c1615610703565b91508560405186818c516109b781838b6139f3565b81018c81520301902001805462ff000019166201000017905582916109db8a613d88565b604051908582527fe8fe2fcbdc61de0148938b975feff1a13f969c9af77c00314097d539028e0795883393a36106fd565b610a24949596506040519485938492519283916139f3565b820190815203019020015460101c1615888888888d8f6106f2565b60405162461bcd60e51b815260048101879052601960248201527f4e6f7420617574686f72697a656420746f20617070726f7665000000000000006044820152606490fd5b50826106dc565b50816106d5565b50848660405185818b51610aa781838a6139f3565b810184815203019020015460a01c1660098110156103485760041461066a565b6064906040519062461bcd60e51b8252600482015260146024820152734e6f2072657761726420746f2072656c6561736560601b6044820152fd5b346101be576020806003193601126101be576004356001600160401b0381116101be57610399826101f8610b3a93369060040161399d565b805115610caa578180916040519283828193519283910191610b5b926139f3565b8101600281520301902060405190610b7282613929565b610b7b81613afa565b8252610b8960018201613afa565b82840190815260028201546001600160a01b0390811660408501908152919490610bb560038501613afa565b606086015260048401549060808601918252600585015460a08701908152600686015460c08801908152600787015460ff169160e08901921515835260088801549661010097888b015260098901610c0c90613afa565b946101209a8b8101968752600a8b01610c2490613afa565b9a8b610140830152600b0154610160820152519b51915116955191519251935115159451966040519b8b8d9c8d528c01610c5d91613a16565b908b8203908c0152610c6e91613a16565b9460408a01526060890152608088015260a087015260c086015284810360e0860152610c9991613a16565b90838203908401526103bc91613a16565b60405162461bcd60e51b815260048101839052601160248201527014548818dbd919481b9bdd08199bdd5b99607a1b6044820152606490fd5b346101be576020806003193601126101be576004356001600160401b0381116101be57610d1490369060040161399d565b604051610d316105fa8351928581818701956105ea8183896139f3565b60405160028351610d438184866139f3565b8201818152829003850190912001546001600160a01b03163303610f655760405190610d9160ff60058551610d798187876139f3565b85019487816003978881520301902001541615613d48565b60ff8260405186818751610da68183896139f3565b810184815203019020015460a01c166009811015610348576004148015610f2f575b610dd190613ea4565b600560405185818651610de58183886139f3565b81018681520301902001600160ff1982541617905560ff8260405186818751610e0f8183896139f3565b810184815203019020015460a01c16600981101561034857600414610efc575b600660405185818651610e438183886139f3565b810186815203019020015415610e89575b837f26925b173eec554b4f9604a8c4406105e1ab18db10fb86b2f51084c271b8bccb610e7f85613d88565b91604051428152a2005b909162093a804201804211610ee6576006610ed586610e7f957f26925b173eec554b4f9604a8c4406105e1ab18db10fb86b2f51084c271b8bccb976040518094819389519283916139f3565b820190815203019020015591610e54565b634e487b7160e01b600052601160045260246000fd5b8160405185818651610f0f8183886139f3565b81018481520301902001805460ff60a01b1916600560a01b179055610e2f565b5060ff8260405186818751610f458183896139f3565b810184815203019020015460a01c16600981101561034857600514610dc8565b60405162461bcd60e51b815260048101849052601b60248201527f4f6e6c79206974656d206f776e65722063616e20636f6e6669726d00000000006044820152606490fd5b346101be5760203660031901126101be576001600160a01b03610fcb613b9f565b1660005260016020526020604060002054604051908152f35b346101be576020806003193601126101be576004356001600160401b0381116101be5761101590369060040161399d565b604051906110336105fa8251938581818601966105ea81838a6139f3565b60405181516110438183866139f3565b600390820181815282900385019091208101546001600160a01b031633036111295760ff816040518681865161107a81838b6139f3565b810184815203019020015460a01c16926009841015610348576110e86004916110a860026110fc9714613ea4565b83604051888188516110bb8183886139f3565b81018481520301902001805460ff60a01b1916600360a01b179055604051855190929091829084906139f3565b810192835285814294030190200155613d88565b7f670f1e40169bb2cadba8fff67d6d1d330109afb7b0acdc2a3752a177bdc5d482604051924284523393a3005b60405162461bcd60e51b815260048101859052602a60248201527f4f6e6c792061737369676e65642066696e6465722063616e20696e6974696174604482015269652064656c697665727960b01b6064820152608490fd5b60203660031901126101be576004356001600160401b0381116101be576111ac90369060040161399d565b6111c76105fa60405160208185516105ea8183858a016139f3565b604051600282516111dc8184602087016139f3565b820181815282900360200190912001546001600160a01b031633036115ec57341561159b5760ff6003604051602081855161121a8183858a016139f3565b810184815203019020015460a01c166009811015610348576007141580611560575b1561151b576001604051602081845161125881838589016139f3565b600390820190815203019020015415611302576112d3906001604051602081845161128681838589016139f3565b810160038152030190200161129c348254613ee7565b90555b600660405160208184516112b681838589016139f3565b81016002815203019020016112cc348254613ee7565b9055613d88565b604051903482527fb920dc06eb7f93e92541892ac3b07315bcce78887e1b64d180c3c1ea89c0722d60203393a3005b6040519061130f82613945565b8082523460208301523360408301526000606083015260016080830152600060a0830152600060c0830152600060e08301526000610100830152600061012083015260006101408301526000610160830152600061018083015260405161137581613961565b600081526101a083015260006101c083015260006101e083015260405160208183516113a481838588016139f3565b810160038152030190206113b9835182613bf9565b6020830151600182015560408301516002820180546001600160a01b039283166001600160a01b03199182161790915560608501516003840180549190931691161790556080830151926009841015610348576101e0600a916114226112d39660038601613df4565b60a081015160048501556114b16005850161144f60c08401511515829060ff801983541691151516179055565b60e0830151815461010085015161012086015161014087015190151560181b63ff0000001691151560101b62ff00001693151560081b61ff001664ffffffff001990931692909217929092179190911790151560201b64ff0000000016179055565b61016081015160068501556114dc6101808201511515600786019060ff801983541691151516179055565b6114ee6101a082015160088601613bf9565b6009840160018060a01b036101c0830151166001600160601b0360a01b825416179055015191015561129f565b60405162461bcd60e51b815260206004820152601860248201527f52657761726420616c72656164792066696e616c697a656400000000000000006044820152606490fd5b5060ff6003604051602081855161157a8183858a016139f3565b810184815203019020015460a01c166009811015610348576008141561123c565b60405162461bcd60e51b8152602060048201526024808201527f52657761726420616d6f756e74206d75737420626520677265617465722074686044820152630616e20360e41b6064820152608490fd5b60405162461bcd60e51b815260206004820152602260248201527f4f6e6c79206974656d206f776e65722063616e206465706f73697420726577616044820152611c9960f21b6064820152608490fd5b346101be576020806003193601126101be576004356001600160401b0381116101be5761166d90369060040161399d565b61168260018060a01b03600054163314613e18565b60405161169f6105fa8351928581818701956105ea8183896139f3565b60ff6003604051858186516116b58183896139f3565b810184815203019020015460a01c16906009821015610348577f38c799a9ad8f0c3a35eff4f9348a760afad1dd6c6757ed17c05d630124195f6e928461176e92611703600660809614613e64565b6005604051838186516117178183886139f3565b810160038152030190200164010000000064ff000000001982541617905560ff60056040518481875161174b8183896139f3565b81016003815203019020015416156117a0575b505061176981613f17565b613d88565b92604051906040825260116040830152703932b632b0b9b2afba37afb334b73232b960791b60608301524290820152a2005b6005916117b8916040518093819287519283916139f3565b8101600381520301902001600160ff19825416179055848661175e565b346101be5760203660031901126101be576004356001600160401b0381116101be5761180590369060040161399d565b604051818180935160208193019161181c926139f3565b8101600281520360200190206040519061183582613929565b61183e81613afa565b825261184c60018201613afa565b6020830190815260028201546001600160a01b031660408401529061187360038201613afa565b606084015260048101546080840152600581015460a0840152600681015460c0840152600781015460ff16151560e084015260088101546101008401526118bc60098201613afa565b6101208401526118ce600a8201613afa565b610140840152600b015461016083015281515115156118ec90613d0b565b8151905191600160a01b6001900360408201511690606081015160808201519060a083015160c084015160e085015115159161010086015193610120870151966101400151976040519a8b9a6101608c526101608c0161194b91613a16565b8b810360208d015261195c91613a16565b9060408b015289810360608b015261197391613a16565b94608089015260a088015260c087015260e08601526101008501528381036101208501526119a091613a16565b8281036101408401526103bc91613a16565b346101be576020806003193601126101be576004356001600160401b0381116101be576119e390369060040161399d565b604051611a006105fa8351928581818701956105ea8183896139f3565b60405160ff8351611a128184866139f3565b82018286600394838680955203019020015460a01c166009811015610348576005611a3d9114613ea4565b60ff600560405186818751611a5381838a6139f3565b81018681520301902001541615611b9557600660405185818651611a788183896139f3565b81018581520301902001544210611b505760ff600760405186818751611a9f81838a6139f3565b810186815203019020015416611b0b57916007611aed85610e7f947f841afa01416b7db93382bff0feebe3eed964bed6e5bc92f6a5bb76d2918c3dd3966040518094819388519283916139f3565b82019081520301902001805460ff1916600117905561176981613f17565b60405162461bcd60e51b815260048101859052601e60248201527f4175746f2d72656c6561736520616c72656164792074726967676572656400006044820152606490fd5b60405162461bcd60e51b815260048101859052601d60248201527f4175746f2d72656c656173652074696d65206e6f7420726561636865640000006044820152606490fd5b6064846040519062461bcd60e51b825280600483015260248201527f4f776e6572206d75737420636f6e6669726d20726563656970742066697273746044820152fd5b346101be5760203660031901126101be576004356005548110156101be57611bff90613bc2565b611c0f576103a86103bc91613afa565b634e487b7160e01b600052600060045260246000fd5b346101be576020806003193601126101be576004356001600160401b0381116101be57611c5690369060040161399d565b60405190611c746105fa8251938581818601966105ea81838a6139f3565b604051908051611c858184866139f3565b600390830181815283900385019092208201546001600160a01b03163303611d3a5760ff8260405186818551611cbc81838b6139f3565b810184815203019020015460a01c1691600983101561034857611d1a857f392eeca5e514eabe5552e3d99904357d75a5add5740bc0fb9ba5e0a8a3d3818d95611d0984610e7f9714613ea4565b6040518093819287519283916139f3565b81018481520301902001805460ff60a01b1916600160a21b179055613d88565b60405162461bcd60e51b815260048101859052602760248201527f4f6e6c792061737369676e65642066696e6465722063616e206d61726b2064656044820152661b1a5d995c995960ca1b6064820152608490fd5b346101be576020806003193601126101be576004356001600160401b0381116101be57816101f8611dc492369060040161399d565b810160038152030190209060405190611ddc82613945565b611de583613afa565b8252600183015481830190815260018060a01b03908160028601541693604081019485526101e0600a600388015497858916606085015260ff611e3181608087019b60a01c168b613de8565b600482015460a0860152806005830154818116151560c0880152818160081c16151560e0880152818160101c161515610100880152818160181c161515610120880152891c16151561014086015260068201546101608601526007820154161515610180850152611ea460088201613afa565b6101a0850152856009820154166101c0850152015491015251925116908351936009851015610348575190600982101561034857608094600893600792604051968752860152146040840152146060820152f35b346101be5760203660031901126101be576004356001600160401b0381116101be57611f2890369060040161399d565b6040518181809351602081930191611f3f926139f3565b810160038152036020019020611f5481613afa565b60018201546002830154600384015460048501546005860154600687015460078801546001600160a01b039586169896979360ff9182169390611f9960088a01613afa565b968860098b01541699600a0154986040519c8d9c8d99610200808c528b01611fc091613a16565b996020015260408d0152811660608c01528360808c019160a01c1690611fe591613bb5565b60a08a0152818116151560c08a0152818160081c16151560e08a0152818160101c1615156101008a0152818160181c1615156101208a015260201c16151561014088015261016087015215156101808601528481036101a086015261204991613a16565b916101c08401526101e08301520390f35b346101be5760403660031901126101be576001600160401b036004358181116101be5761208b90369060040161399d565b60249182359081116101be576120a590369060040161399d565b906040519281516120c66105fa6020968781818801956105ea8183896139f3565b60405191600184516120d98186866139f3565b8401938781600396878152030190200154156123ab5760ff836040518881885161210481838a6139f3565b810184815203019020015460a01c1660098110156123605783148015612375575b801561232a575b156122e75760405184516121418183866139f3565b6002908201818152829003880190912001546040518551336001600160a01b0393841614929086906121748185896139f3565b8301928184528a813395030190200154161481156122df575b501561228d57509181600a6122557fd3d2a84165ee08fdb2591d250db973139731316b7e643aca21424e8ebcc6f50395612269956040518a8188516121d38183886139f3565b81018481520301902001600360a11b60ff60a01b198254161790556122158860086040518c818a5161220681838a6139f3565b81018a81520301902001613bf9565b60096040518a8188516122298183886139f3565b81018881520301902001336001600160601b0360a01b82541617905560405191829186519283916139f3565b810192835287814294030190200155613d88565b9161227f60405191604083526040830190613a16565b9342908201528033940390a3005b8560266084926040519262461bcd60e51b845260048401528201527f4f6e6c79206f776e6572206f722066696e6465722063616e207261697365206460448201526569737075746560d01b6064820152fd5b90508761218d565b85601c6064926040519262461bcd60e51b845260048401528201527f43616e6e6f7420646973707574652061742074686973207374616765000000006044820152fd5b5060ff836040518881885161234081838a6139f3565b810184815203019020015460a01c1660098110156123605760051461212c565b50634e487b7160e01b60009081526021600452fd5b5060ff836040518881885161238b81838a6139f3565b810184815203019020015460a01c16600981101561236057600414612125565b8560136064926040519262461bcd60e51b84526004840152820152724e6f2072657761726420696e20657363726f7760681b6044820152fd5b346101be5760003660031901126101be576020600654604051908152f35b346101be5760003660031901126101be576020600554604051908152f35b346101be576020806003193601126101be576004356001600160401b0381116101be57816101f861245592369060040161399d565b8101600381520301902060405161246b81613945565b61247482613afa565b815260018201548382015260028201546001600160a01b0390811660408301526003830154808216606084015260ff9260808101916124b89060a01c851683613de8565b600485015460a08201526101e0600a6005870154968660c085019881811615158a52818160081c16151560e0870152818160101c161515610100870152818160181c1615156101208701528a1c1615156101408501526006810154966101608501978852600782015416956101808501961515875261253960088301613afa565b6101a08601526009820154166101c08501520154910152516009811015610348576005149283612593575b5082612589575b508161257d575b506040519015158152f35b90505142101582612572565b511591508361256b565b511515925084612564565b346101be5760203660031901126101be576125b7613b9f565b600054906001600160a01b03906125d13383851614613e18565b169081156125e9576001600160a01b03191617600055005b60405162461bcd60e51b815260206004820152600f60248201526e496e76616c6964206164647265737360881b6044820152606490fd5b346101be5760403660031901126101be576004356001600160401b0381116101be5761265090369060040161399d565b60249081356001600160a01b0381811692918390036101be5760405182516126886105fa6020938481818901956105ea8183896139f3565b8260026040518481885161269d8183896139f3565b81018481520301902001541633036128935760405192600185516126c28187866139f3565b85019484816003978881520301902001541561285c5760ff84604051858189516126ed81838a6139f3565b810184815203019020015460a01c1660098110156128475760016127119114613ea4565b851561280a5760026040518481885161272b8183896139f3565b81018481520301902001541685146127cd578291612786916127a695946040518381885161275a8183886139f3565b8101848152030190200180546001600160a01b03191688179055604051855190938492829084906139f3565b81018481520301902001805460ff60a01b1916600160a11b179055613d88565b7ffe1e0d96ec4083e7f6e630f85c20803473ec735e0ba10e5847099a0976e4f9ed600080a3005b60405162461bcd60e51b8152600481018390526016818801527527bbb732b91031b0b73737ba103132903334b73232b960511b6044820152606490fd5b60405162461bcd60e51b81526004810184905260168189015275496e76616c69642066696e646572206164647265737360501b6044820152606490fd5b87634e487b7160e01b60005260216004526000fd5b60405162461bcd60e51b8152600481018490526010818901526f4e6f2072657761726420657363726f7760801b6044820152606490fd5b60405162461bcd60e51b8152600481018390526021818801527f4f6e6c79206974656d206f776e65722063616e2061737369676e2066696e64656044820152603960f91b6064820152608490fd5b346101be5760003660031901126101be576005546001600160401b0381116129d357602060405191612918828260051b018461397c565b808352818301908160056000527f036b6384b5eca791c62761152d0c79bb0604c104a5fb6f4eb0703f3154bb3db06000915b8383106129b15750505050604051918083019381845251809452604083019360408160051b85010192916000955b8287106129855785850386f35b9091929382806129a1600193603f198a82030186528851613a16565b9601920196019592919092612978565b60018681926129c2859a999a613afa565b81520192019201919095949561294a565b634e487b7160e01b600052604160045260246000fd5b346101be576020806003193601126101be576004356001600160401b0381116101be57612a1a90369060040161399d565b6000546001600160a01b0390612a339082163314613e18565b604051612a506105fa8451928681818801956105ea8183896139f3565b60ff600360405186818751612a668183896139f3565b810184815203019020015460a01c16600981101561034857612a8f91611d096006879314613e64565b81016003815203019020906003820180549160ff8360a01c1690600982101561034857612aca82600760019414159081612baa575b50613da8565b60028501541693015491600160a31b9060ff60a01b1916179055600081838115612ba0575b600092839283928392f115612b945782608092612b64927f4f0b04a72ac760a57c7e950e730e02a5929f068ece9e04dbf556fc685730131b6040612b537f38c799a9ad8f0c3a35eff4f9348a760afad1dd6c6757ed17c05d630124195f6e98613d88565b928151908152428a820152a3613d88565b926040519060408252600f60408301526e3932b33ab7322fba37afb7bbb732b960891b60608301524290820152a2005b6040513d6000823e3d90fd5b6108fc9250612aef565b60089150141589612ac4565b6101003660031901126101be576001600160401b036004358181116101be57612be390369060040161399d565b9060249182358281116101be57612bfe90369060040161399d565b926044358381116101be57612c1790369060040161399d565b9260a4358181116101be57612c3090369060040161399d565b9060c4359081116101be57612c4990369060040161399d565b612c6160405160208187516105ea8183858c016139f3565b61310b578451156130cf5760405191612c7983613929565b848352866020840152336040840152856060840152606435608084015260843560a08401523460c0840152600060e08401524261010084015261012083015261014082015260e435610160820152600b6101606040516020818751612ce18183858c016139f3565b8101600281520301902092612cf7815185613bf9565b612d08602082015160018601613bf9565b60018060a01b036040820151166001600160601b0360a01b600286015416176002850155612d3d606082015160038601613bf9565b6080810151600485015560a0810151600585015560c08101516006850155612d7a60e08201511515600786019060ff801983541691151516179055565b6101008101516008850155612d9761012082015160098601613bf9565b612da9610140820151600a8601613bf9565b0151910155600554600160401b8110156130ba57806001612dcd9201600555613bc2565b6130a55782612ddb91613bf9565b612e03826040516020818751612df48183858c016139f3565b81016004815203019020613bf9565b34612e7a575b50612e5b612e377f33e086aeb519cf5914bec0d38136908cba6d61c1e771e234fa89ad28900f444292613d88565b92612e4d6040519560a0875260a0870190613a16565b908582036020870152613a16565b92606435604082015260843560608201523460808201528033940390a3005b604051612e8681613945565b8281523460208201523360408201526000606082015260016080820152600060a0820152600060c0820152600060e082015260006101008201526000610120820152600061014082015260006101608201526000610180820152604051612eec81613961565b600081526101a082015260006101c082015260006101e08201526040516020818551612f1b8183858a016139f3565b8101600381520301902091612f31825184613bf9565b6020820151600184015560408201516002840180546001600160a01b039283166001600160a01b0319918216179091556060840151600386018054919093169116179055608082015190600982101561309157509282600a6101e0612e3794612fc17f33e086aeb519cf5914bec0d38136908cba6d61c1e771e234fa89ad28900f4442986003612e5b9901613df4565b60a08101516004850155612fee6005850161144f60c08401511515829060ff801983541691151516179055565b61016081015160068501556130196101808201511515600786019060ff801983541691151516179055565b61302b6101a082015160088601613bf9565b6009840160018060a01b036101c0830151166001600160601b0360a01b825416179055015191015561305c81613d88565b604051903482527fb920dc06eb7f93e92541892ac3b07315bcce78887e1b64d180c3c1ea89c0722d60203393a3925050612e09565b634e487b7160e01b60009081526021600452fd5b50634e487b7160e01b60005260006004526000fd5b50634e487b7160e01b60009081526041600452fd5b60405162461bcd60e51b8152602060048201526015818501527414548818dbd919481a185cda081c995c5d5a5c9959605a1b6044820152606490fd5b60405162461bcd60e51b8152602060048201526017818501527f4974656d20616c726561647920726567697374657265640000000000000000006044820152606490fd5b346101be5760603660031901126101be576001600160401b036004358181116101be5761318090369060040161399d565b6024916001600160a01b03833581811692908390036101be576044359081116101be576131b190369060040161399d565b6040519284519260026020958681818a01976131ce81838b6139f3565b81018481520301902001541633036134015760405191600186516131f38186886139f3565b8401938681600396878152030190200154156133ca5760ff8360405187818a5161321e81838c6139f3565b810184815203019020015460a01c166009811015612847576007141580613393575b61324990613da8565b600b6040518681895161325d81838b6139f3565b810160028152030190200154613301575b6107ce8660056132e7888888888160405185818a5161328e81838a6139f3565b81018481520301902001906001600160601b0360a01b82541617905584604051848189516132bd8183896139f3565b810185815203019020016201000062ff0000198254161790556040518094819388519283916139f3565b82019081520301902001805460ff19166001179055613f17565b60405161332a86828161331d81830196878151938492016139f3565b810103808452018261397c565b519020600b6040518681895161334181838b6139f3565b81016002815203019020015403613358578561326e565b60405162461bcd60e51b8152600481018590526014818801527324b73b30b634b21039b2b1b932ba10383937b7b360611b6044820152606490fd5b5060ff8360405187818a516133a981838c6139f3565b810184815203019020015460a01c1660098110156128475760081415613240565b60405162461bcd60e51b8152600481018690526010818901526f4e6f2072657761726420746f2070617960801b6044820152606490fd5b60405162461bcd60e51b815260048101859052601a818801527f4f6e6c79206974656d206f776e65722063616e207665726966790000000000006044820152606490fd5b346101be5760003660031901126101be576020604051621275008152f35b346101be5760203660031901126101be576004356001600160401b0381116101be5761349390369060040161399d565b60405181818093516020819301916134aa926139f3565b8101600281520360200190206134bf81613afa565b6134cb60018301613afa565b600283015490926001600160a01b03909116906134ea60038201613afa565b600482015460058301546006840154600785015460ff16906008860154926009870161351590613afa565b95613522600a8901613afa565b97600b0154986040519b8c9b8c6101808091528d0161354091613a16565b8c810360208e015261355191613a16565b9060408c01528a810360608c015261356891613a16565b9460808a015260a089015260c0880152151560e087015261010086015284810361012086015261359791613a16565b8381036101408501526135a991613a16565b906101608301520390f35b346101be5760203660031901126101be576004356006548110156101be576135db90613a70565b506135e581613afa565b6103bc6135f460018401613afa565b92600360028201549101549060405194859485613a3b565b346101be5760203660031901126101be576004356006548110156136875761363390613a70565b50604051906136418261390e565b61364a81613afa565b82526103bc61365b60018301613afa565b928360208201526003600284015493846040840152015490816060820152519260405194859485613a3b565b60405162461bcd60e51b8152602060048201526013602482015272496e646578206f7574206f6620626f756e647360681b6044820152606490fd5b346101be576020806003193601126101be576004356001600160401b0381116101be576136f390369060040161399d565b6040516137106105fa8351928581818701956105ea8183896139f3565b604051600383516137228184866139f3565b8201818152829003850190912001546001600160a01b031633036137b7577f909684c465e4398491c8c8f37edcefbc6b9cd6382cd8c7d19d949da1775dd37891600561379a85610e7f94611d0960ff8560405185818a5161378481838a6139f3565b81016003815203019020015460081c1615613d48565b810160038152030190200161010061ff0019825416179055613d88565b6064836040519062461bcd60e51b825280600483015260248201527f4f6e6c792061737369676e65642066696e6465722063616e20636f6e6669726d6044820152fd5b346101be5760603660031901126101be576001600160401b036004358181116101be5761382b90369060040161399d565b906024359081116101be5761384490369060040161399d565b604435906040516138548161390e565b838152602081019382855260408201948486526060830190428252600654600160401b8110156129d35780600161388e9201600655613a70565b929092611c0f577fb8d32ddba15c9887bc5592d6aafe2415f5d68a0462bd015809a0cd865b192517976138d56003936138cb6138ed985187613bf9565b5160018601613bf9565b51600284015551910155604051938493429285613a3b565b0390a1005b346101be5760003660031901126101be578062093a8060209252f35b608081019081106001600160401b038211176129d357604052565b61018081019081106001600160401b038211176129d357604052565b61020081019081106001600160401b038211176129d357604052565b602081019081106001600160401b038211176129d357604052565b90601f801991011681019081106001600160401b038211176129d357604052565b81601f820112156101be578035906001600160401b0382116129d357604051926139d1601f8401601f19166020018561397c565b828452602083830101116101be57816000926020809301838601378301015290565b60005b838110613a065750506000910152565b81810151838201526020016139f6565b90602091613a2f815180928185528580860191016139f3565b601f01601f1916010190565b90606092613a58613a669297969597608085526080850190613a16565b908382036020850152613a16565b9460408201520152565b600654811015613aaa57600660005260021b7ff652222313e28459528d920b65115c16c04f3efc82aaedc97be59f3f377c0d3f0190600090565b634e487b7160e01b600052603260045260246000fd5b90600182811c92168015613af0575b6020831014613ada57565b634e487b7160e01b600052602260045260246000fd5b91607f1691613acf565b90604051918260008254613b0d81613ac0565b90818452602094600191600181169081600014613b7d5750600114613b3e575b505050613b3c9250038361397c565b565b600090815285812095935091905b818310613b65575050613b3c9350820101388080613b2d565b85548884018501529485019487945091830191613b4c565b92505050613b3c94925060ff191682840152151560051b820101388080613b2d565b600435906001600160a01b03821682036101be57565b9060098210156103485752565b600554811015613aaa5760056000527f036b6384b5eca791c62761152d0c79bb0604c104a5fb6f4eb0703f3154bb3db00190600090565b91909182516001600160401b0381116129d357613c168254613ac0565b601f8111613cc1575b50602080601f8311600114613c5c575081929394600092613c51575b50508160011b916000199060031b1c1916179055565b015190503880613c3b565b90601f19831695846000526020600020926000905b888210613ca957505083600195969710613c90575b505050811b019055565b015160001960f88460031b161c19169055388080613c86565b80600185968294968601518155019501930190613c71565b6000836000526020600020601f840160051c81019260208510613d01575b601f0160051c01915b828110613cf6575050613c1f565b818155600101613ce8565b9092508290613cdf565b15613d1257565b60405162461bcd60e51b815260206004820152600e60248201526d125d195b481b9bdd08199bdd5b9960921b6044820152606490fd5b15613d4f57565b60405162461bcd60e51b8152602060048201526011602482015270105b1c9958591e4818dbdb999a5c9b5959607a1b6044820152606490fd5b613da0906020604051928284809451938492016139f3565b810103902090565b15613daf57565b60405162461bcd60e51b8152602060048201526011602482015270105b1c9958591e48199a5b985b1a5e9959607a1b6044820152606490fd5b60098210156103485752565b90600981101561034857815460ff60a01b191660a09190911b60ff60a01b16179055565b15613e1f57565b60405162461bcd60e51b815260206004820152601860248201527f4f6e6c792061646d696e2063616e2063616c6c207468697300000000000000006044820152606490fd5b15613e6b57565b60405162461bcd60e51b81526020600482015260116024820152704e6f20616374697665206469737075746560781b6044820152606490fd5b15613eab57565b60405162461bcd60e51b8152602060048201526014602482015273496e76616c696420657363726f7720737461746560601b6044820152606490fd5b91908201809211610ee657565b6000198114610ee65760010190565b9060ff8091169116019060ff8211610ee657565b604080519082519160208181860194613f318183886139f3565b8101600381520301902092600384019283549360ff8560a01c16600981101561034857600792613f9e92613f7183866020951415908161404a5750613da8565b6001808060a01b038916990154978560a01b9060ff60a01b191617905585518093819287519283916139f3565b8101600281520301902001600160ff1982541617905560008481526001602052828120805490600a8201809211614036575580848682821561402d575b839283928392f1156140225750906140137f7af356cb2da0ea5b5270354703cff39d84c8fdfb6e4e9424fbbe1ce6e44394b792613d88565b928151908152426020820152a3565b8251903d90823e3d90fd5b506108fc613fdb565b634e487b7160e01b83526011600452602483fd5b60089150141538612ac456fea2646970667358221220366f3b97db862e134b30865006f1bce892708dbeeaa805ba7255191f3028558d64736f6c63430008180033",
  "linkReferences": {},
  "deployedLinkReferences": {}
}